{
  "_format": "hh-sol-artifact-1",
  "contractName": "Register",
  "sourceName": "contracts/ERC20.sol",
  "abi": [
    {
      "inputs": [
        {
          "internalType": "address",
          "name": "_recipient",
          "type": "address"
        }
      ],
      "name": "register",
      "outputs": [
        {
          "internalType": "uint256",
          "name": "tokenId",
          "type": "uint256"
        }
      ],
      "stateMutability": "nonpayable",
      "type": "function"
    }
  ],
  "bytecode": "0x608060405234801561001057600080fd5b5060b48061001f6000396000f3fe6080604052348015600f57600080fd5b506004361060285760003560e01c80634420e48614602d575b600080fd5b603e60383660046050565b50600090565b60405190815260200160405180910390f35b600060208284031215606157600080fd5b81356001600160a01b0381168114607757600080fd5b939250505056fea2646970667358221220f322d361da88086b5831fda0338f06a5804d9232dfd9ca426c92d696bd7214ad64736f6c63430008140033",
  "linkReferences": {},
  "deployedLinkReferences": {}
}