{
  "_format": "hh-sol-artifact-1",
  "contractName": "Token",
  "sourceName": "contracts/ERC20.sol",
  "abi": [
    {
      "inputs": [
        {
          "internalType": "string",
          "name": "_name",
          "type": "string"
        },
        {
          "internalType": "string",
          "name": "_ticker",
          "type": "string"
        },
        {
          "internalType": "uint256",
          "name": "_supply",
          "type": "uint256"
        }
      ],
      "stateMutability": "payable",
      "type": "constructor"
    },
    {
      "inputs": [
        {
          "internalType": "address",
          "name": "spender",
          "type": "address"
        },
        {
          "internalType": "uint256",
          "name": "allowance",
          "type": "uint256"
        },
        {
          "internalType": "uint256",
          "name": "needed",
          "type": "uint256"
        }
      ],
      "name": "ERC20InsufficientAllowance",
      "type": "error"
    },
    {
      "inputs": [
        {
          "internalType": "address",
          "name": "sender",
          "type": "address"
        },
        {
          "internalType": "uint256",
          "name": "balance",
          "type": "uint256"
        },
        {
          "internalType": "uint256",
          "name": "needed",
          "type": "uint256"
        }
      ],
      "name": "ERC20InsufficientBalance",
      "type": "error"
    },
    {
      "inputs": [
        {
          "internalType": "address",
          "name": "approver",
          "type": "address"
        }
      ],
      "name": "ERC20InvalidApprover",
      "type": "error"
    },
    {
      "inputs": [
        {
          "internalType": "address",
          "name": "receiver",
          "type": "address"
        }
      ],
      "name": "ERC20InvalidReceiver",
      "type": "error"
    },
    {
      "inputs": [
        {
          "internalType": "address",
          "name": "sender",
          "type": "address"
        }
      ],
      "name": "ERC20InvalidSender",
      "type": "error"
    },
    {
      "inputs": [
        {
          "internalType": "address",
          "name": "spender",
          "type": "address"
        }
      ],
      "name": "ERC20InvalidSpender",
      "type": "error"
    },
    {
      "anonymous": false,
      "inputs": [
        {
          "indexed": true,
          "internalType": "address",
          "name": "owner",
          "type": "address"
        },
        {
          "indexed": true,
          "internalType": "address",
          "name": "spender",
          "type": "address"
        },
        {
          "indexed": false,
          "internalType": "uint256",
          "name": "value",
          "type": "uint256"
        }
      ],
      "name": "Approval",
      "type": "event"
    },
    {
      "anonymous": false,
      "inputs": [
        {
          "indexed": true,
          "internalType": "address",
          "name": "from",
          "type": "address"
        },
        {
          "indexed": true,
          "internalType": "address",
          "name": "to",
          "type": "address"
        },
        {
          "indexed": false,
          "internalType": "uint256",
          "name": "value",
          "type": "uint256"
        }
      ],
      "name": "Transfer",
      "type": "event"
    },
    {
      "inputs": [
        {
          "internalType": "address[]",
          "name": "_accounts",
          "type": "address[]"
        },
        {
          "internalType": "uint256",
          "name": "_amount",
          "type": "uint256"
        }
      ],
      "name": "airdrop",
      "outputs": [],
      "stateMutability": "nonpayable",
      "type": "function"
    },
    {
      "inputs": [
        {
          "internalType": "address",
          "name": "owner",
          "type": "address"
        },
        {
          "internalType": "address",
          "name": "spender",
          "type": "address"
        }
      ],
      "name": "allowance",
      "outputs": [
        {
          "internalType": "uint256",
          "name": "",
          "type": "uint256"
        }
      ],
      "stateMutability": "view",
      "type": "function"
    },
    {
      "inputs": [
        {
          "internalType": "address",
          "name": "spender",
          "type": "address"
        },
        {
          "internalType": "uint256",
          "name": "value",
          "type": "uint256"
        }
      ],
      "name": "approve",
      "outputs": [
        {
          "internalType": "bool",
          "name": "",
          "type": "bool"
        }
      ],
      "stateMutability": "nonpayable",
      "type": "function"
    },
    {
      "inputs": [
        {
          "internalType": "address",
          "name": "account",
          "type": "address"
        }
      ],
      "name": "balanceOf",
      "outputs": [
        {
          "internalType": "uint256",
          "name": "",
          "type": "uint256"
        }
      ],
      "stateMutability": "view",
      "type": "function"
    },
    {
      "inputs": [],
      "name": "decimals",
      "outputs": [
        {
          "internalType": "uint8",
          "name": "",
          "type": "uint8"
        }
      ],
      "stateMutability": "view",
      "type": "function"
    },
    {
      "inputs": [],
      "name": "name",
      "outputs": [
        {
          "internalType": "string",
          "name": "",
          "type": "string"
        }
      ],
      "stateMutability": "view",
      "type": "function"
    },
    {
      "inputs": [],
      "name": "symbol",
      "outputs": [
        {
          "internalType": "string",
          "name": "",
          "type": "string"
        }
      ],
      "stateMutability": "view",
      "type": "function"
    },
    {
      "inputs": [],
      "name": "totalSupply",
      "outputs": [
        {
          "internalType": "uint256",
          "name": "",
          "type": "uint256"
        }
      ],
      "stateMutability": "view",
      "type": "function"
    },
    {
      "inputs": [
        {
          "internalType": "address",
          "name": "to",
          "type": "address"
        },
        {
          "internalType": "uint256",
          "name": "value",
          "type": "uint256"
        }
      ],
      "name": "transfer",
      "outputs": [
        {
          "internalType": "bool",
          "name": "",
          "type": "bool"
        }
      ],
      "stateMutability": "nonpayable",
      "type": "function"
    },
    {
      "inputs": [
        {
          "internalType": "address",
          "name": "from",
          "type": "address"
        },
        {
          "internalType": "address",
          "name": "to",
          "type": "address"
        },
        {
          "internalType": "uint256",
          "name": "value",
          "type": "uint256"
        }
      ],
      "name": "transferFrom",
      "outputs": [
        {
          "internalType": "bool",
          "name": "",
          "type": "bool"
        }
      ],
      "stateMutability": "nonpayable",
      "type": "function"
    }
  ],
  "bytecode": "0x608060405260405162000dd338038062000dd3833981016040819052620000269162000319565b828260036200003683826200041b565b5060046200004582826200041b565b5050506200005a3382620000df60201b60201c565b604051632210724360e11b815233600482015273bbd707815a7f7eb6897c7686274afabd7b579ff6908190634420e486906024016020604051808303816000875af1158015620000ae573d6000803e3d6000fd5b505050506040513d601f19601f82011682018060405250810190620000d49190620004e7565b505050505062000529565b6001600160a01b0382166200010f5760405163ec442f0560e01b8152600060048201526024015b60405180910390fd5b6200011d6000838362000121565b5050565b6001600160a01b0383166200015057806002600082825462000144919062000501565b90915550620001c49050565b6001600160a01b03831660009081526020819052604090205481811015620001a55760405163391434e360e21b81526001600160a01b0385166004820152602481018290526044810183905260640162000106565b6001600160a01b03841660009081526020819052604090209082900390555b6001600160a01b038216620001e25760028054829003905562000201565b6001600160a01b03821660009081526020819052604090208054820190555b816001600160a01b0316836001600160a01b03167fddf252ad1be2c89b69c2b068fc378daa952ba7f163c4a11628f55a4df523b3ef836040516200024791815260200190565b60405180910390a3505050565b634e487b7160e01b600052604160045260246000fd5b600082601f8301126200027c57600080fd5b81516001600160401b038082111562000299576200029962000254565b604051601f8301601f19908116603f01168101908282118183101715620002c457620002c462000254565b81604052838152602092508683858801011115620002e157600080fd5b600091505b83821015620003055785820183015181830184015290820190620002e6565b600093810190920192909252949350505050565b6000806000606084860312156200032f57600080fd5b83516001600160401b03808211156200034757600080fd5b62000355878388016200026a565b945060208601519150808211156200036c57600080fd5b506200037b868287016200026a565b925050604084015190509250925092565b600181811c90821680620003a157607f821691505b602082108103620003c257634e487b7160e01b600052602260045260246000fd5b50919050565b601f8211156200041657600081815260208120601f850160051c81016020861015620003f15750805b601f850160051c820191505b818110156200041257828155600101620003fd565b5050505b505050565b81516001600160401b0381111562000437576200043762000254565b6200044f816200044884546200038c565b84620003c8565b602080601f8311600181146200048757600084156200046e5750858301515b600019600386901b1c1916600185901b17855562000412565b600085815260208120601f198616915b82811015620004b85788860151825594840194600190910190840162000497565b5085821015620004d75787850151600019600388901b60f8161c191681555b5050505050600190811b01905550565b600060208284031215620004fa57600080fd5b5051919050565b808201808211156200052357634e487b7160e01b600052601160045260246000fd5b92915050565b61089a80620005396000396000f3fe608060405234801561001057600080fd5b506004361061009e5760003560e01c806370a082311161006657806370a082311461011857806395d89b4114610141578063a9059cbb14610149578063c204642c1461015c578063dd62ed3e1461017157600080fd5b806306fdde03146100a3578063095ea7b3146100c157806318160ddd146100e457806323b872dd146100f6578063313ce56714610109575b600080fd5b6100ab6101aa565b6040516100b891906105cc565b60405180910390f35b6100d46100cf366004610636565b61023c565b60405190151581526020016100b8565b6002545b6040519081526020016100b8565b6100d4610104366004610660565b610256565b604051601281526020016100b8565b6100e861012636600461069c565b6001600160a01b031660009081526020819052604090205490565b6100ab61027a565b6100d4610157366004610636565b610289565b61016f61016a3660046106d4565b610297565b005b6100e861017f36600461079f565b6001600160a01b03918216600090815260016020908152604080832093909416825291909152205490565b6060600380546101b9906107d2565b80601f01602080910402602001604051908101604052809291908181526020018280546101e5906107d2565b80156102325780601f1061020757610100808354040283529160200191610232565b820191906000526020600020905b81548152906001019060200180831161021557829003601f168201915b5050505050905090565b60003361024a8185856102de565b60019150505b92915050565b6000336102648582856102eb565b61026f85858561036e565b506001949350505050565b6060600480546101b9906107d2565b60003361024a81858561036e565b60005b82518110156102d9576102c7338483815181106102b9576102b961080c565b60200260200101518461036e565b806102d181610838565b91505061029a565b505050565b6102d983838360016103cd565b6001600160a01b038381166000908152600160209081526040808320938616835292905220546000198114610368578181101561035957604051637dc7a0d960e11b81526001600160a01b038416600482015260248101829052604481018390526064015b60405180910390fd5b610368848484840360006103cd565b50505050565b6001600160a01b03831661039857604051634b637e8f60e11b815260006004820152602401610350565b6001600160a01b0382166103c25760405163ec442f0560e01b815260006004820152602401610350565b6102d98383836104a2565b6001600160a01b0384166103f75760405163e602df0560e01b815260006004820152602401610350565b6001600160a01b03831661042157604051634a1406b160e11b815260006004820152602401610350565b6001600160a01b038085166000908152600160209081526040808320938716835292905220829055801561036857826001600160a01b0316846001600160a01b03167f8c5be1e5ebec7d5bd14f71427d1e84f3dd0314c0f7b2291e5b200ac8c7c3b9258460405161049491815260200190565b60405180910390a350505050565b6001600160a01b0383166104cd5780600260008282546104c29190610851565b9091555061053f9050565b6001600160a01b038316600090815260208190526040902054818110156105205760405163391434e360e21b81526001600160a01b03851660048201526024810182905260448101839052606401610350565b6001600160a01b03841660009081526020819052604090209082900390555b6001600160a01b03821661055b5760028054829003905561057a565b6001600160a01b03821660009081526020819052604090208054820190555b816001600160a01b0316836001600160a01b03167fddf252ad1be2c89b69c2b068fc378daa952ba7f163c4a11628f55a4df523b3ef836040516105bf91815260200190565b60405180910390a3505050565b600060208083528351808285015260005b818110156105f9578581018301518582016040015282016105dd565b506000604082860101526040601f19601f8301168501019250505092915050565b80356001600160a01b038116811461063157600080fd5b919050565b6000806040838503121561064957600080fd5b6106528361061a565b946020939093013593505050565b60008060006060848603121561067557600080fd5b61067e8461061a565b925061068c6020850161061a565b9150604084013590509250925092565b6000602082840312156106ae57600080fd5b6106b78261061a565b9392505050565b634e487b7160e01b600052604160045260246000fd5b600080604083850312156106e757600080fd5b823567ffffffffffffffff808211156106ff57600080fd5b818501915085601f83011261071357600080fd5b8135602082821115610727576107276106be565b8160051b604051601f19603f8301168101818110868211171561074c5761074c6106be565b60405292835281830193508481018201928984111561076a57600080fd5b948201945b8386101561078f576107808661061a565b8552948201949382019361076f565b9997909101359750505050505050565b600080604083850312156107b257600080fd5b6107bb8361061a565b91506107c96020840161061a565b90509250929050565b600181811c908216806107e657607f821691505b60208210810361080657634e487b7160e01b600052602260045260246000fd5b50919050565b634e487b7160e01b600052603260045260246000fd5b634e487b7160e01b600052601160045260246000fd5b60006001820161084a5761084a610822565b5060010190565b808201808211156102505761025061082256fea2646970667358221220c0fb5faf4e86b3eafb3de402f6da8a973b4e06b1d24cdc4e8a287987a36187b964736f6c63430008140033",
  "linkReferences": {},
  "deployedLinkReferences": {}
}